{
	"FundMe.sol": {
		"FundMe": {
			"abi": [
				{
					"inputs": [],
					"stateMutability": "nonpayable",
					"type": "constructor"
				},
				{
					"inputs": [],
					"name": "fund",
					"outputs": [],
					"stateMutability": "payable",
					"type": "function"
				},
				{
					"inputs": [
						{
							"internalType": "address",
							"name": "",
							"type": "address"
						}
					],
					"name": "fundersToAmount",
					"outputs": [
						{
							"internalType": "uint256",
							"name": "",
							"type": "uint256"
						}
					],
					"stateMutability": "view",
					"type": "function"
				},
				{
					"inputs": [],
					"name": "getChainlinkDataFeedLatestAnswer",
					"outputs": [
						{
							"internalType": "int256",
							"name": "",
							"type": "int256"
						}
					],
					"stateMutability": "view",
					"type": "function"
				},
				{
					"inputs": [],
					"name": "getFund",
					"outputs": [],
					"stateMutability": "nonpayable",
					"type": "function"
				},
				{
					"inputs": [],
					"name": "owner",
					"outputs": [
						{
							"internalType": "address",
							"name": "",
							"type": "address"
						}
					],
					"stateMutability": "view",
					"type": "function"
				},
				{
					"inputs": [
						{
							"internalType": "address",
							"name": "newOwner",
							"type": "address"
						}
					],
					"name": "transferOwnership",
					"outputs": [],
					"stateMutability": "nonpayable",
					"type": "function"
				}
			],
			"devdoc": {
				"kind": "dev",
				"methods": {},
				"version": 1
			},
			"evm": {
				"assembly": "    /* \"FundMe.sol\":383:2195  contract FundMe{... */\n  mstore(0x40, 0x80)\n    /* \"FundMe.sol\":655:821  constructor(){... */\n  callvalue\n  dup1\n  iszero\n  tag_1\n  jumpi\n  revert(0x00, 0x00)\ntag_1:\n  pop\n    /* \"FundMe.sol\":741:783  0x694AA1769357215DE4FAC081bf1f309aDC325306 */\n  0x694aa1769357215de4fac081bf1f309adc325306\n    /* \"FundMe.sol\":708:716  dataFeed */\n  0x00\n  0x00\n    /* \"FundMe.sol\":708:784  dataFeed = AggregatorV3Interface(0x694AA1769357215DE4FAC081bf1f309aDC325306) */\n  0x0100\n  exp\n  dup2\n  sload\n  dup2\n  0xffffffffffffffffffffffffffffffffffffffff\n  mul\n  not\n  and\n  swap1\n  dup4\n  0xffffffffffffffffffffffffffffffffffffffff\n  and\n  mul\n  or\n  swap1\n  sstore\n  pop\n    /* \"FundMe.sol\":803:813  msg.sender */\n  caller\n    /* \"FundMe.sol\":795:800  owner */\n  0x02\n  0x00\n    /* \"FundMe.sol\":795:813  owner = msg.sender */\n  0x0100\n  exp\n  dup2\n  sload\n  dup2\n  0xffffffffffffffffffffffffffffffffffffffff\n  mul\n  not\n  and\n  swap1\n  dup4\n  0xffffffffffffffffffffffffffffffffffffffff\n  and\n  mul\n  or\n  swap1\n  sstore\n  pop\n    /* \"FundMe.sol\":383:2195  contract FundMe{... */\n  dataSize(sub_0)\n  dup1\n  dataOffset(sub_0)\n  0x00\n  codecopy\n  0x00\n  return\nstop\n\nsub_0: assembly {\n        /* \"FundMe.sol\":383:2195  contract FundMe{... */\n      mstore(0x40, 0x80)\n      jumpi(tag_1, lt(calldatasize, 0x04))\n      shr(0xe0, calldataload(0x00))\n      dup1\n      0x8da5cb5b\n      eq\n      tag_2\n      jumpi\n      dup1\n      0x8edd6eb6\n      eq\n      tag_3\n      jumpi\n      dup1\n      0x9f883a05\n      eq\n      tag_4\n      jumpi\n      dup1\n      0xb60d4288\n      eq\n      tag_5\n      jumpi\n      dup1\n      0xbea4dfb5\n      eq\n      tag_6\n      jumpi\n      dup1\n      0xf2fde38b\n      eq\n      tag_7\n      jumpi\n    tag_1:\n      revert(0x00, 0x00)\n        /* \"FundMe.sol\":626:646  address public owner */\n    tag_2:\n      callvalue\n      dup1\n      iszero\n      tag_8\n      jumpi\n      revert(0x00, 0x00)\n    tag_8:\n      pop\n      tag_9\n      tag_10\n      jump\t// in\n    tag_9:\n      mload(0x40)\n      tag_11\n      swap2\n      swap1\n      tag_12\n      jump\t// in\n    tag_11:\n      mload(0x40)\n      dup1\n      swap2\n      sub\n      swap1\n      return\n        /* \"FundMe.sol\":1605:2004  function getFund() external {... */\n    tag_3:\n      callvalue\n      dup1\n      iszero\n      tag_13\n      jumpi\n      revert(0x00, 0x00)\n    tag_13:\n      pop\n      tag_14\n      tag_15\n      jump\t// in\n    tag_14:\n      stop\n        /* \"FundMe.sol\":453:504  mapping (address => uint256) public fundersToAmount */\n    tag_4:\n      callvalue\n      dup1\n      iszero\n      tag_16\n      jumpi\n      revert(0x00, 0x00)\n    tag_16:\n      pop\n      tag_17\n      0x04\n      dup1\n      calldatasize\n      sub\n      dup2\n      add\n      swap1\n      tag_18\n      swap2\n      swap1\n      tag_19\n      jump\t// in\n    tag_18:\n      tag_20\n      jump\t// in\n    tag_17:\n      mload(0x40)\n      tag_21\n      swap2\n      swap1\n      tag_22\n      jump\t// in\n    tag_21:\n      mload(0x40)\n      dup1\n      swap2\n      sub\n      swap1\n      return\n        /* \"FundMe.sol\":829:1018  function fund() external payable { //payable 收款... */\n    tag_5:\n      tag_23\n      tag_24\n      jump\t// in\n    tag_23:\n      stop\n        /* \"FundMe.sol\":1026:1383  function getChainlinkDataFeedLatestAnswer() public view returns (int) {... */\n    tag_6:\n      callvalue\n      dup1\n      iszero\n      tag_25\n      jumpi\n      revert(0x00, 0x00)\n    tag_25:\n      pop\n      tag_26\n      tag_27\n      jump\t// in\n    tag_26:\n      mload(0x40)\n      tag_28\n      swap2\n      swap1\n      tag_29\n      jump\t// in\n    tag_28:\n      mload(0x40)\n      dup1\n      swap2\n      sub\n      swap1\n      return\n        /* \"FundMe.sol\":2012:2192  function transferOwnership(address newOwner) public{... */\n    tag_7:\n      callvalue\n      dup1\n      iszero\n      tag_30\n      jumpi\n      revert(0x00, 0x00)\n    tag_30:\n      pop\n      tag_31\n      0x04\n      dup1\n      calldatasize\n      sub\n      dup2\n      add\n      swap1\n      tag_32\n      swap2\n      swap1\n      tag_19\n      jump\t// in\n    tag_32:\n      tag_33\n      jump\t// in\n    tag_31:\n      stop\n        /* \"FundMe.sol\":626:646  address public owner */\n    tag_10:\n      0x02\n      0x00\n      swap1\n      sload\n      swap1\n      0x0100\n      exp\n      swap1\n      div\n      0xffffffffffffffffffffffffffffffffffffffff\n      and\n      dup2\n      jump\t// out\n        /* \"FundMe.sol\":1605:2004  function getFund() external {... */\n    tag_15:\n        /* \"FundMe.sol\":602:617  1000 * 10 ** 18 */\n      0x3635c9adc5dea00000\n        /* \"FundMe.sol\":1652:1690  convertEthToUsd(address(this).balance) */\n      tag_35\n        /* \"FundMe.sol\":1668:1689  address(this).balance */\n      selfbalance\n        /* \"FundMe.sol\":1652:1667  convertEthToUsd */\n      tag_36\n        /* \"FundMe.sol\":1652:1690  convertEthToUsd(address(this).balance) */\n      jump\t// in\n    tag_35:\n        /* \"FundMe.sol\":1652:1700  convertEthToUsd(address(this).balance) >= TARGET */\n      lt\n      iszero\n        /* \"FundMe.sol\":1644:1726  require(convertEthToUsd(address(this).balance) >= TARGET, \"Target is not reached\") */\n      tag_37\n      jumpi\n      mload(0x40)\n      0x08c379a000000000000000000000000000000000000000000000000000000000\n      dup2\n      mstore\n      0x04\n      add\n      tag_38\n      swap1\n      tag_39\n      jump\t// in\n    tag_38:\n      mload(0x40)\n      dup1\n      swap2\n      sub\n      swap1\n      revert\n    tag_37:\n        /* \"FundMe.sol\":1759:1764  owner */\n      0x02\n      0x00\n      swap1\n      sload\n      swap1\n      0x0100\n      exp\n      swap1\n      div\n      0xffffffffffffffffffffffffffffffffffffffff\n      and\n        /* \"FundMe.sol\":1745:1764  msg.sender == owner */\n      0xffffffffffffffffffffffffffffffffffffffff\n      and\n        /* \"FundMe.sol\":1745:1755  msg.sender */\n      caller\n        /* \"FundMe.sol\":1745:1764  msg.sender == owner */\n      0xffffffffffffffffffffffffffffffffffffffff\n      and\n      eq\n        /* \"FundMe.sol\":1737:1810  require(msg.sender == owner, \"This function can only be called by owner\") */\n      tag_40\n      jumpi\n      mload(0x40)\n      0x08c379a000000000000000000000000000000000000000000000000000000000\n      dup2\n      mstore\n      0x04\n      add\n      tag_41\n      swap1\n      tag_42\n      jump\t// in\n    tag_41:\n      mload(0x40)\n      dup1\n      swap2\n      sub\n      swap1\n      revert\n    tag_40:\n        /* \"FundMe.sol\":1919:1929  msg.sender */\n      caller\n        /* \"FundMe.sol\":1911:1939  payable(msg.sender).transfer */\n      0xffffffffffffffffffffffffffffffffffffffff\n      and\n        /* \"FundMe.sol\":1911:1962  payable(msg.sender).transfer(address(this).balance) */\n      0x08fc\n        /* \"FundMe.sol\":1940:1961  address(this).balance */\n      selfbalance\n        /* \"FundMe.sol\":1911:1962  payable(msg.sender).transfer(address(this).balance) */\n      swap1\n      dup2\n      iszero\n      mul\n      swap1\n      mload(0x40)\n      0x00\n      mload(0x40)\n      dup1\n      dup4\n      sub\n      dup2\n      dup6\n      dup9\n      dup9\n      call\n      swap4\n      pop\n      pop\n      pop\n      pop\n      iszero\n      dup1\n      iszero\n      tag_44\n      jumpi\n      returndatacopy(0x00, 0x00, returndatasize)\n      revert(0x00, returndatasize)\n    tag_44:\n      pop\n        /* \"FundMe.sol\":1605:2004  function getFund() external {... */\n      jump\t// out\n        /* \"FundMe.sol\":453:504  mapping (address => uint256) public fundersToAmount */\n    tag_20:\n      mstore(0x20, 0x01)\n      dup1\n      0x00\n      mstore\n      keccak256(0x00, 0x40)\n      0x00\n      swap2\n      pop\n      swap1\n      pop\n      sload\n      dup2\n      jump\t// out\n        /* \"FundMe.sol\":829:1018  function fund() external payable { //payable 收款... */\n    tag_24:\n        /* \"FundMe.sol\":546:560  100 * 10 ** 18 */\n      0x056bc75e2d63100000\n        /* \"FundMe.sol\":898:924  convertEthToUsd(msg.value) */\n      tag_46\n        /* \"FundMe.sol\":914:923  msg.value */\n      callvalue\n        /* \"FundMe.sol\":898:913  convertEthToUsd */\n      tag_36\n        /* \"FundMe.sol\":898:924  convertEthToUsd(msg.value) */\n      jump\t// in\n    tag_46:\n        /* \"FundMe.sol\":898:941  convertEthToUsd(msg.value) >= MINIMUM_VALUE */\n      lt\n      iszero\n        /* \"FundMe.sol\":890:960  require(convertEthToUsd(msg.value) >= MINIMUM_VALUE, \"Send More ETH!\") */\n      tag_47\n      jumpi\n      mload(0x40)\n      0x08c379a000000000000000000000000000000000000000000000000000000000\n      dup2\n      mstore\n      0x04\n      add\n      tag_48\n      swap1\n      tag_49\n      jump\t// in\n    tag_48:\n      mload(0x40)\n      dup1\n      swap2\n      sub\n      swap1\n      revert\n    tag_47:\n        /* \"FundMe.sol\":1001:1010  msg.value */\n      callvalue\n        /* \"FundMe.sol\":971:986  fundersToAmount */\n      0x01\n        /* \"FundMe.sol\":971:998  fundersToAmount[msg.sender] */\n      0x00\n        /* \"FundMe.sol\":987:997  msg.sender */\n      caller\n        /* \"FundMe.sol\":971:998  fundersToAmount[msg.sender] */\n      0xffffffffffffffffffffffffffffffffffffffff\n      and\n      0xffffffffffffffffffffffffffffffffffffffff\n      and\n      dup2\n      mstore\n      0x20\n      add\n      swap1\n      dup2\n      mstore\n      0x20\n      add\n      0x00\n      keccak256\n        /* \"FundMe.sol\":971:1010  fundersToAmount[msg.sender] = msg.value */\n      dup2\n      swap1\n      sstore\n      pop\n        /* \"FundMe.sol\":829:1018  function fund() external payable { //payable 收款... */\n      jump\t// out\n        /* \"FundMe.sol\":1026:1383  function getChainlinkDataFeedLatestAnswer() public view returns (int) {... */\n    tag_27:\n        /* \"FundMe.sol\":1091:1094  int */\n      0x00\n        /* \"FundMe.sol\":1185:1198  int256 answer */\n      0x00\n        /* \"FundMe.sol\":1325:1333  dataFeed */\n      0x00\n      0x00\n      swap1\n      sload\n      swap1\n      0x0100\n      exp\n      swap1\n      div\n      0xffffffffffffffffffffffffffffffffffffffff\n      and\n        /* \"FundMe.sol\":1325:1349  dataFeed.latestRoundData */\n      0xffffffffffffffffffffffffffffffffffffffff\n      and\n      0xfeaf968c\n        /* \"FundMe.sol\":1325:1351  dataFeed.latestRoundData() */\n      mload(0x40)\n      dup2\n      0xffffffff\n      and\n      0xe0\n      shl\n      dup2\n      mstore\n      0x04\n      add\n      0xa0\n      mload(0x40)\n      dup1\n      dup4\n      sub\n      dup2\n      dup7\n      gas\n      staticcall\n      iszero\n      dup1\n      iszero\n      tag_52\n      jumpi\n      returndatacopy(0x00, 0x00, returndatasize)\n      revert(0x00, returndatasize)\n    tag_52:\n      pop\n      pop\n      pop\n      pop\n      mload(0x40)\n      returndatasize\n      not(0x1f)\n      0x1f\n      dup3\n      add\n      and\n      dup3\n      add\n      dup1\n      0x40\n      mstore\n      pop\n      dup2\n      add\n      swap1\n      tag_53\n      swap2\n      swap1\n      tag_54\n      jump\t// in\n    tag_53:\n        /* \"FundMe.sol\":1135:1351  (... */\n      pop\n      pop\n      pop\n      swap2\n      pop\n      pop\n        /* \"FundMe.sol\":1369:1375  answer */\n      dup1\n        /* \"FundMe.sol\":1362:1375  return answer */\n      swap2\n      pop\n      pop\n        /* \"FundMe.sol\":1026:1383  function getChainlinkDataFeedLatestAnswer() public view returns (int) {... */\n      swap1\n      jump\t// out\n        /* \"FundMe.sol\":2012:2192  function transferOwnership(address newOwner) public{... */\n    tag_33:\n        /* \"FundMe.sol\":2096:2101  owner */\n      0x02\n      0x00\n      swap1\n      sload\n      swap1\n      0x0100\n      exp\n      swap1\n      div\n      0xffffffffffffffffffffffffffffffffffffffff\n      and\n        /* \"FundMe.sol\":2082:2101  msg.sender == owner */\n      0xffffffffffffffffffffffffffffffffffffffff\n      and\n        /* \"FundMe.sol\":2082:2092  msg.sender */\n      caller\n        /* \"FundMe.sol\":2082:2101  msg.sender == owner */\n      0xffffffffffffffffffffffffffffffffffffffff\n      and\n      eq\n        /* \"FundMe.sol\":2074:2147  require(msg.sender == owner, \"This function can only be called by owner\") */\n      tag_56\n      jumpi\n      mload(0x40)\n      0x08c379a000000000000000000000000000000000000000000000000000000000\n      dup2\n      mstore\n      0x04\n      add\n      tag_57\n      swap1\n      tag_42\n      jump\t// in\n    tag_57:\n      mload(0x40)\n      dup1\n      swap2\n      sub\n      swap1\n      revert\n    tag_56:\n        /* \"FundMe.sol\":2176:2184  newOwner */\n      dup1\n        /* \"FundMe.sol\":2168:2173  owner */\n      0x02\n      0x00\n        /* \"FundMe.sol\":2168:2184  owner = newOwner */\n      0x0100\n      exp\n      dup2\n      sload\n      dup2\n      0xffffffffffffffffffffffffffffffffffffffff\n      mul\n      not\n      and\n      swap1\n      dup4\n      0xffffffffffffffffffffffffffffffffffffffff\n      and\n      mul\n      or\n      swap1\n      sstore\n      pop\n        /* \"FundMe.sol\":2012:2192  function transferOwnership(address newOwner) public{... */\n      pop\n      jump\t// out\n        /* \"FundMe.sol\":1391:1597  function convertEthToUsd(uint256 ethAmount) internal view returns (uint256){... */\n    tag_36:\n        /* \"FundMe.sol\":1458:1465  uint256 */\n      0x00\n        /* \"FundMe.sol\":1477:1493  uint256 ethPrice */\n      0x00\n        /* \"FundMe.sol\":1504:1538  getChainlinkDataFeedLatestAnswer() */\n      tag_59\n        /* \"FundMe.sol\":1504:1536  getChainlinkDataFeedLatestAnswer */\n      tag_27\n        /* \"FundMe.sol\":1504:1538  getChainlinkDataFeedLatestAnswer() */\n      jump\t// in\n    tag_59:\n        /* \"FundMe.sol\":1477:1539  uint256 ethPrice = uint256(getChainlinkDataFeedLatestAnswer()) */\n      swap1\n      pop\n        /* \"FundMe.sol\":1581:1588  10 ** 8 */\n      0x05f5e100\n        /* \"FundMe.sol\":1569:1577  ethPrice */\n      dup2\n        /* \"FundMe.sol\":1557:1566  ethAmount */\n      dup5\n        /* \"FundMe.sol\":1557:1577  ethAmount * ethPrice */\n      tag_60\n      swap2\n      swap1\n      tag_61\n      jump\t// in\n    tag_60:\n        /* \"FundMe.sol\":1557:1589  ethAmount * ethPrice / (10 ** 8) */\n      tag_62\n      swap2\n      swap1\n      tag_63\n      jump\t// in\n    tag_62:\n        /* \"FundMe.sol\":1550:1589  return ethAmount * ethPrice / (10 ** 8) */\n      swap2\n      pop\n      pop\n        /* \"FundMe.sol\":1391:1597  function convertEthToUsd(uint256 ethAmount) internal view returns (uint256){... */\n      swap2\n      swap1\n      pop\n      jump\t// out\n        /* \"#utility.yul\":7:133   */\n    tag_64:\n        /* \"#utility.yul\":44:51   */\n      0x00\n        /* \"#utility.yul\":84:126   */\n      0xffffffffffffffffffffffffffffffffffffffff\n        /* \"#utility.yul\":77:82   */\n      dup3\n        /* \"#utility.yul\":73:127   */\n      and\n        /* \"#utility.yul\":62:127   */\n      swap1\n      pop\n        /* \"#utility.yul\":7:133   */\n      swap2\n      swap1\n      pop\n      jump\t// out\n        /* \"#utility.yul\":139:235   */\n    tag_65:\n        /* \"#utility.yul\":176:183   */\n      0x00\n        /* \"#utility.yul\":205:229   */\n      tag_95\n        /* \"#utility.yul\":223:228   */\n      dup3\n        /* \"#utility.yul\":205:229   */\n      tag_64\n      jump\t// in\n    tag_95:\n        /* \"#utility.yul\":194:229   */\n      swap1\n      pop\n        /* \"#utility.yul\":139:235   */\n      swap2\n      swap1\n      pop\n      jump\t// out\n        /* \"#utility.yul\":241:359   */\n    tag_66:\n        /* \"#utility.yul\":328:352   */\n      tag_97\n        /* \"#utility.yul\":346:351   */\n      dup2\n        /* \"#utility.yul\":328:352   */\n      tag_65\n      jump\t// in\n    tag_97:\n        /* \"#utility.yul\":323:326   */\n      dup3\n        /* \"#utility.yul\":316:353   */\n      mstore\n        /* \"#utility.yul\":241:359   */\n      pop\n      pop\n      jump\t// out\n        /* \"#utility.yul\":365:587   */\n    tag_12:\n        /* \"#utility.yul\":458:462   */\n      0x00\n        /* \"#utility.yul\":496:498   */\n      0x20\n        /* \"#utility.yul\":485:494   */\n      dup3\n        /* \"#utility.yul\":481:499   */\n      add\n        /* \"#utility.yul\":473:499   */\n      swap1\n      pop\n        /* \"#utility.yul\":509:580   */\n      tag_99\n        /* \"#utility.yul\":577:578   */\n      0x00\n        /* \"#utility.yul\":566:575   */\n      dup4\n        /* \"#utility.yul\":562:579   */\n      add\n        /* \"#utility.yul\":553:559   */\n      dup5\n        /* \"#utility.yul\":509:580   */\n      tag_66\n      jump\t// in\n    tag_99:\n        /* \"#utility.yul\":365:587   */\n      swap3\n      swap2\n      pop\n      pop\n      jump\t// out\n        /* \"#utility.yul\":674:791   */\n    tag_68:\n        /* \"#utility.yul\":783:784   */\n      0x00\n        /* \"#utility.yul\":780:781   */\n      0x00\n        /* \"#utility.yul\":773:785   */\n      revert\n        /* \"#utility.yul\":920:1042   */\n    tag_70:\n        /* \"#utility.yul\":993:1017   */\n      tag_104\n        /* \"#utility.yul\":1011:1016   */\n      dup2\n        /* \"#utility.yul\":993:1017   */\n      tag_65\n      jump\t// in\n    tag_104:\n        /* \"#utility.yul\":986:991   */\n      dup2\n        /* \"#utility.yul\":983:1018   */\n      eq\n        /* \"#utility.yul\":973:1036   */\n      tag_105\n      jumpi\n        /* \"#utility.yul\":1032:1033   */\n      0x00\n        /* \"#utility.yul\":1029:1030   */\n      0x00\n        /* \"#utility.yul\":1022:1034   */\n      revert\n        /* \"#utility.yul\":973:1036   */\n    tag_105:\n        /* \"#utility.yul\":920:1042   */\n      pop\n      jump\t// out\n        /* \"#utility.yul\":1048:1187   */\n    tag_71:\n        /* \"#utility.yul\":1094:1099   */\n      0x00\n        /* \"#utility.yul\":1132:1138   */\n      dup2\n        /* \"#utility.yul\":1119:1139   */\n      calldataload\n        /* \"#utility.yul\":1110:1139   */\n      swap1\n      pop\n        /* \"#utility.yul\":1148:1181   */\n      tag_107\n        /* \"#utility.yul\":1175:1180   */\n      dup2\n        /* \"#utility.yul\":1148:1181   */\n      tag_70\n      jump\t// in\n    tag_107:\n        /* \"#utility.yul\":1048:1187   */\n      swap3\n      swap2\n      pop\n      pop\n      jump\t// out\n        /* \"#utility.yul\":1193:1522   */\n    tag_19:\n        /* \"#utility.yul\":1252:1258   */\n      0x00\n        /* \"#utility.yul\":1301:1303   */\n      0x20\n        /* \"#utility.yul\":1289:1298   */\n      dup3\n        /* \"#utility.yul\":1280:1287   */\n      dup5\n        /* \"#utility.yul\":1276:1299   */\n      sub\n        /* \"#utility.yul\":1272:1304   */\n      slt\n        /* \"#utility.yul\":1269:1388   */\n      iszero\n      tag_109\n      jumpi\n        /* \"#utility.yul\":1307:1386   */\n      tag_110\n      tag_68\n      jump\t// in\n    tag_110:\n        /* \"#utility.yul\":1269:1388   */\n    tag_109:\n        /* \"#utility.yul\":1427:1428   */\n      0x00\n        /* \"#utility.yul\":1452:1505   */\n      tag_111\n        /* \"#utility.yul\":1497:1504   */\n      dup5\n        /* \"#utility.yul\":1488:1494   */\n      dup3\n        /* \"#utility.yul\":1477:1486   */\n      dup6\n        /* \"#utility.yul\":1473:1495   */\n      add\n        /* \"#utility.yul\":1452:1505   */\n      tag_71\n      jump\t// in\n    tag_111:\n        /* \"#utility.yul\":1442:1505   */\n      swap2\n      pop\n        /* \"#utility.yul\":1398:1515   */\n      pop\n        /* \"#utility.yul\":1193:1522   */\n      swap3\n      swap2\n      pop\n      pop\n      jump\t// out\n        /* \"#utility.yul\":1528:1605   */\n    tag_72:\n        /* \"#utility.yul\":1565:1572   */\n      0x00\n        /* \"#utility.yul\":1594:1599   */\n      dup2\n        /* \"#utility.yul\":1583:1599   */\n      swap1\n      pop\n        /* \"#utility.yul\":1528:1605   */\n      swap2\n      swap1\n      pop\n      jump\t// out\n        /* \"#utility.yul\":1611:1729   */\n    tag_73:\n        /* \"#utility.yul\":1698:1722   */\n      tag_114\n        /* \"#utility.yul\":1716:1721   */\n      dup2\n        /* \"#utility.yul\":1698:1722   */\n      tag_72\n      jump\t// in\n    tag_114:\n        /* \"#utility.yul\":1693:1696   */\n      dup3\n        /* \"#utility.yul\":1686:1723   */\n      mstore\n        /* \"#utility.yul\":1611:1729   */\n      pop\n      pop\n      jump\t// out\n        /* \"#utility.yul\":1735:1957   */\n    tag_22:\n        /* \"#utility.yul\":1828:1832   */\n      0x00\n        /* \"#utility.yul\":1866:1868   */\n      0x20\n        /* \"#utility.yul\":1855:1864   */\n      dup3\n        /* \"#utility.yul\":1851:1869   */\n      add\n        /* \"#utility.yul\":1843:1869   */\n      swap1\n      pop\n        /* \"#utility.yul\":1879:1950   */\n      tag_116\n        /* \"#utility.yul\":1947:1948   */\n      0x00\n        /* \"#utility.yul\":1936:1945   */\n      dup4\n        /* \"#utility.yul\":1932:1949   */\n      add\n        /* \"#utility.yul\":1923:1929   */\n      dup5\n        /* \"#utility.yul\":1879:1950   */\n      tag_73\n      jump\t// in\n    tag_116:\n        /* \"#utility.yul\":1735:1957   */\n      swap3\n      swap2\n      pop\n      pop\n      jump\t// out\n        /* \"#utility.yul\":1963:2039   */\n    tag_74:\n        /* \"#utility.yul\":1999:2006   */\n      0x00\n        /* \"#utility.yul\":2028:2033   */\n      dup2\n        /* \"#utility.yul\":2017:2033   */\n      swap1\n      pop\n        /* \"#utility.yul\":1963:2039   */\n      swap2\n      swap1\n      pop\n      jump\t// out\n        /* \"#utility.yul\":2045:2160   */\n    tag_75:\n        /* \"#utility.yul\":2130:2153   */\n      tag_119\n        /* \"#utility.yul\":2147:2152   */\n      dup2\n        /* \"#utility.yul\":2130:2153   */\n      tag_74\n      jump\t// in\n    tag_119:\n        /* \"#utility.yul\":2125:2128   */\n      dup3\n        /* \"#utility.yul\":2118:2154   */\n      mstore\n        /* \"#utility.yul\":2045:2160   */\n      pop\n      pop\n      jump\t// out\n        /* \"#utility.yul\":2166:2384   */\n    tag_29:\n        /* \"#utility.yul\":2257:2261   */\n      0x00\n        /* \"#utility.yul\":2295:2297   */\n      0x20\n        /* \"#utility.yul\":2284:2293   */\n      dup3\n        /* \"#utility.yul\":2280:2298   */\n      add\n        /* \"#utility.yul\":2272:2298   */\n      swap1\n      pop\n        /* \"#utility.yul\":2308:2377   */\n      tag_121\n        /* \"#utility.yul\":2374:2375   */\n      0x00\n        /* \"#utility.yul\":2363:2372   */\n      dup4\n        /* \"#utility.yul\":2359:2376   */\n      add\n        /* \"#utility.yul\":2350:2356   */\n      dup5\n        /* \"#utility.yul\":2308:2377   */\n      tag_75\n      jump\t// in\n    tag_121:\n        /* \"#utility.yul\":2166:2384   */\n      swap3\n      swap2\n      pop\n      pop\n      jump\t// out\n        /* \"#utility.yul\":2390:2559   */\n    tag_76:\n        /* \"#utility.yul\":2474:2485   */\n      0x00\n        /* \"#utility.yul\":2508:2514   */\n      dup3\n        /* \"#utility.yul\":2503:2506   */\n      dup3\n        /* \"#utility.yul\":2496:2515   */\n      mstore\n        /* \"#utility.yul\":2548:2552   */\n      0x20\n        /* \"#utility.yul\":2543:2546   */\n      dup3\n        /* \"#utility.yul\":2539:2553   */\n      add\n        /* \"#utility.yul\":2524:2553   */\n      swap1\n      pop\n        /* \"#utility.yul\":2390:2559   */\n      swap3\n      swap2\n      pop\n      pop\n      jump\t// out\n        /* \"#utility.yul\":2565:2736   */\n    tag_77:\n        /* \"#utility.yul\":2705:2728   */\n      0x546172676574206973206e6f7420726561636865640000000000000000000000\n        /* \"#utility.yul\":2701:2702   */\n      0x00\n        /* \"#utility.yul\":2693:2699   */\n      dup3\n        /* \"#utility.yul\":2689:2703   */\n      add\n        /* \"#utility.yul\":2682:2729   */\n      mstore\n        /* \"#utility.yul\":2565:2736   */\n      pop\n      jump\t// out\n        /* \"#utility.yul\":2742:3108   */\n    tag_78:\n        /* \"#utility.yul\":2884:2887   */\n      0x00\n        /* \"#utility.yul\":2905:2972   */\n      tag_125\n        /* \"#utility.yul\":2969:2971   */\n      0x15\n        /* \"#utility.yul\":2964:2967   */\n      dup4\n        /* \"#utility.yul\":2905:2972   */\n      tag_76\n      jump\t// in\n    tag_125:\n        /* \"#utility.yul\":2898:2972   */\n      swap2\n      pop\n        /* \"#utility.yul\":2981:3074   */\n      tag_126\n        /* \"#utility.yul\":3070:3073   */\n      dup3\n        /* \"#utility.yul\":2981:3074   */\n      tag_77\n      jump\t// in\n    tag_126:\n        /* \"#utility.yul\":3099:3101   */\n      0x20\n        /* \"#utility.yul\":3094:3097   */\n      dup3\n        /* \"#utility.yul\":3090:3102   */\n      add\n        /* \"#utility.yul\":3083:3102   */\n      swap1\n      pop\n        /* \"#utility.yul\":2742:3108   */\n      swap2\n      swap1\n      pop\n      jump\t// out\n        /* \"#utility.yul\":3114:3533   */\n    tag_39:\n        /* \"#utility.yul\":3280:3284   */\n      0x00\n        /* \"#utility.yul\":3318:3320   */\n      0x20\n        /* \"#utility.yul\":3307:3316   */\n      dup3\n        /* \"#utility.yul\":3303:3321   */\n      add\n        /* \"#utility.yul\":3295:3321   */\n      swap1\n      pop\n        /* \"#utility.yul\":3367:3376   */\n      dup2\n        /* \"#utility.yul\":3361:3365   */\n      dup2\n        /* \"#utility.yul\":3357:3377   */\n      sub\n        /* \"#utility.yul\":3353:3354   */\n      0x00\n        /* \"#utility.yul\":3342:3351   */\n      dup4\n        /* \"#utility.yul\":3338:3355   */\n      add\n        /* \"#utility.yul\":3331:3378   */\n      mstore\n        /* \"#utility.yul\":3395:3526   */\n      tag_128\n        /* \"#utility.yul\":3521:3525   */\n      dup2\n        /* \"#utility.yul\":3395:3526   */\n      tag_78\n      jump\t// in\n    tag_128:\n        /* \"#utility.yul\":3387:3526   */\n      swap1\n      pop\n        /* \"#utility.yul\":3114:3533   */\n      swap2\n      swap1\n      pop\n      jump\t// out\n        /* \"#utility.yul\":3539:3767   */\n    tag_79:\n        /* \"#utility.yul\":3679:3713   */\n      0x546869732066756e6374696f6e2063616e206f6e6c792062652063616c6c6564\n        /* \"#utility.yul\":3675:3676   */\n      0x00\n        /* \"#utility.yul\":3667:3673   */\n      dup3\n        /* \"#utility.yul\":3663:3677   */\n      add\n        /* \"#utility.yul\":3656:3714   */\n      mstore\n        /* \"#utility.yul\":3748:3759   */\n      0x206279206f776e65720000000000000000000000000000000000000000000000\n        /* \"#utility.yul\":3743:3745   */\n      0x20\n        /* \"#utility.yul\":3735:3741   */\n      dup3\n        /* \"#utility.yul\":3731:3746   */\n      add\n        /* \"#utility.yul\":3724:3760   */\n      mstore\n        /* \"#utility.yul\":3539:3767   */\n      pop\n      jump\t// out\n        /* \"#utility.yul\":3773:4139   */\n    tag_80:\n        /* \"#utility.yul\":3915:3918   */\n      0x00\n        /* \"#utility.yul\":3936:4003   */\n      tag_131\n        /* \"#utility.yul\":4000:4002   */\n      0x29\n        /* \"#utility.yul\":3995:3998   */\n      dup4\n        /* \"#utility.yul\":3936:4003   */\n      tag_76\n      jump\t// in\n    tag_131:\n        /* \"#utility.yul\":3929:4003   */\n      swap2\n      pop\n        /* \"#utility.yul\":4012:4105   */\n      tag_132\n        /* \"#utility.yul\":4101:4104   */\n      dup3\n        /* \"#utility.yul\":4012:4105   */\n      tag_79\n      jump\t// in\n    tag_132:\n        /* \"#utility.yul\":4130:4132   */\n      0x40\n        /* \"#utility.yul\":4125:4128   */\n      dup3\n        /* \"#utility.yul\":4121:4133   */\n      add\n        /* \"#utility.yul\":4114:4133   */\n      swap1\n      pop\n        /* \"#utility.yul\":3773:4139   */\n      swap2\n      swap1\n      pop\n      jump\t// out\n        /* \"#utility.yul\":4145:4564   */\n    tag_42:\n        /* \"#utility.yul\":4311:4315   */\n      0x00\n        /* \"#utility.yul\":4349:4351   */\n      0x20\n        /* \"#utility.yul\":4338:4347   */\n      dup3\n        /* \"#utility.yul\":4334:4352   */\n      add\n        /* \"#utility.yul\":4326:4352   */\n      swap1\n      pop\n        /* \"#utility.yul\":4398:4407   */\n      dup2\n        /* \"#utility.yul\":4392:4396   */\n      dup2\n        /* \"#utility.yul\":4388:4408   */\n      sub\n        /* \"#utility.yul\":4384:4385   */\n      0x00\n        /* \"#utility.yul\":4373:4382   */\n      dup4\n        /* \"#utility.yul\":4369:4386   */\n      add\n        /* \"#utility.yul\":4362:4409   */\n      mstore\n        /* \"#utility.yul\":4426:4557   */\n      tag_134\n        /* \"#utility.yul\":4552:4556   */\n      dup2\n        /* \"#utility.yul\":4426:4557   */\n      tag_80\n      jump\t// in\n    tag_134:\n        /* \"#utility.yul\":4418:4557   */\n      swap1\n      pop\n        /* \"#utility.yul\":4145:4564   */\n      swap2\n      swap1\n      pop\n      jump\t// out\n        /* \"#utility.yul\":4570:4734   */\n    tag_81:\n        /* \"#utility.yul\":4710:4726   */\n      0x53656e64204d6f72652045544821000000000000000000000000000000000000\n        /* \"#utility.yul\":4706:4707   */\n      0x00\n        /* \"#utility.yul\":4698:4704   */\n      dup3\n        /* \"#utility.yul\":4694:4708   */\n      add\n        /* \"#utility.yul\":4687:4727   */\n      mstore\n        /* \"#utility.yul\":4570:4734   */\n      pop\n      jump\t// out\n        /* \"#utility.yul\":4740:5106   */\n    tag_82:\n        /* \"#utility.yul\":4882:4885   */\n      0x00\n        /* \"#utility.yul\":4903:4970   */\n      tag_137\n        /* \"#utility.yul\":4967:4969   */\n      0x0e\n        /* \"#utility.yul\":4962:4965   */\n      dup4\n        /* \"#utility.yul\":4903:4970   */\n      tag_76\n      jump\t// in\n    tag_137:\n        /* \"#utility.yul\":4896:4970   */\n      swap2\n      pop\n        /* \"#utility.yul\":4979:5072   */\n      tag_138\n        /* \"#utility.yul\":5068:5071   */\n      dup3\n        /* \"#utility.yul\":4979:5072   */\n      tag_81\n      jump\t// in\n    tag_138:\n        /* \"#utility.yul\":5097:5099   */\n      0x20\n        /* \"#utility.yul\":5092:5095   */\n      dup3\n        /* \"#utility.yul\":5088:5100   */\n      add\n        /* \"#utility.yul\":5081:5100   */\n      swap1\n      pop\n        /* \"#utility.yul\":4740:5106   */\n      swap2\n      swap1\n      pop\n      jump\t// out\n        /* \"#utility.yul\":5112:5531   */\n    tag_49:\n        /* \"#utility.yul\":5278:5282   */\n      0x00\n        /* \"#utility.yul\":5316:5318   */\n      0x20\n        /* \"#utility.yul\":5305:5314   */\n      dup3\n        /* \"#utility.yul\":5301:5319   */\n      add\n        /* \"#utility.yul\":5293:5319   */\n      swap1\n      pop\n        /* \"#utility.yul\":5365:5374   */\n      dup2\n        /* \"#utility.yul\":5359:5363   */\n      dup2\n        /* \"#utility.yul\":5355:5375   */\n      sub\n        /* \"#utility.yul\":5351:5352   */\n      0x00\n        /* \"#utility.yul\":5340:5349   */\n      dup4\n        /* \"#utility.yul\":5336:5353   */\n      add\n        /* \"#utility.yul\":5329:5376   */\n      mstore\n        /* \"#utility.yul\":5393:5524   */\n      tag_140\n        /* \"#utility.yul\":5519:5523   */\n      dup2\n        /* \"#utility.yul\":5393:5524   */\n      tag_82\n      jump\t// in\n    tag_140:\n        /* \"#utility.yul\":5385:5524   */\n      swap1\n      pop\n        /* \"#utility.yul\":5112:5531   */\n      swap2\n      swap1\n      pop\n      jump\t// out\n        /* \"#utility.yul\":5537:5642   */\n    tag_83:\n        /* \"#utility.yul\":5573:5580   */\n      0x00\n        /* \"#utility.yul\":5613:5635   */\n      0xffffffffffffffffffff\n        /* \"#utility.yul\":5606:5611   */\n      dup3\n        /* \"#utility.yul\":5602:5636   */\n      and\n        /* \"#utility.yul\":5591:5636   */\n      swap1\n      pop\n        /* \"#utility.yul\":5537:5642   */\n      swap2\n      swap1\n      pop\n      jump\t// out\n        /* \"#utility.yul\":5648:5768   */\n    tag_84:\n        /* \"#utility.yul\":5720:5743   */\n      tag_143\n        /* \"#utility.yul\":5737:5742   */\n      dup2\n        /* \"#utility.yul\":5720:5743   */\n      tag_83\n      jump\t// in\n    tag_143:\n        /* \"#utility.yul\":5713:5718   */\n      dup2\n        /* \"#utility.yul\":5710:5744   */\n      eq\n        /* \"#utility.yul\":5700:5762   */\n      tag_144\n      jumpi\n        /* \"#utility.yul\":5758:5759   */\n      0x00\n        /* \"#utility.yul\":5755:5756   */\n      0x00\n        /* \"#utility.yul\":5748:5760   */\n      revert\n        /* \"#utility.yul\":5700:5762   */\n    tag_144:\n        /* \"#utility.yul\":5648:5768   */\n      pop\n      jump\t// out\n        /* \"#utility.yul\":5774:5915   */\n    tag_85:\n        /* \"#utility.yul\":5830:5835   */\n      0x00\n        /* \"#utility.yul\":5861:5867   */\n      dup2\n        /* \"#utility.yul\":5855:5868   */\n      mload\n        /* \"#utility.yul\":5846:5868   */\n      swap1\n      pop\n        /* \"#utility.yul\":5877:5909   */\n      tag_146\n        /* \"#utility.yul\":5903:5908   */\n      dup2\n        /* \"#utility.yul\":5877:5909   */\n      tag_84\n      jump\t// in\n    tag_146:\n        /* \"#utility.yul\":5774:5915   */\n      swap3\n      swap2\n      pop\n      pop\n      jump\t// out\n        /* \"#utility.yul\":5921:6041   */\n    tag_86:\n        /* \"#utility.yul\":5993:6016   */\n      tag_148\n        /* \"#utility.yul\":6010:6015   */\n      dup2\n        /* \"#utility.yul\":5993:6016   */\n      tag_74\n      jump\t// in\n    tag_148:\n        /* \"#utility.yul\":5986:5991   */\n      dup2\n        /* \"#utility.yul\":5983:6017   */\n      eq\n        /* \"#utility.yul\":5973:6035   */\n      tag_149\n      jumpi\n        /* \"#utility.yul\":6031:6032   */\n      0x00\n        /* \"#utility.yul\":6028:6029   */\n      0x00\n        /* \"#utility.yul\":6021:6033   */\n      revert\n        /* \"#utility.yul\":5973:6035   */\n    tag_149:\n        /* \"#utility.yul\":5921:6041   */\n      pop\n      jump\t// out\n        /* \"#utility.yul\":6047:6188   */\n    tag_87:\n        /* \"#utility.yul\":6103:6108   */\n      0x00\n        /* \"#utility.yul\":6134:6140   */\n      dup2\n        /* \"#utility.yul\":6128:6141   */\n      mload\n        /* \"#utility.yul\":6119:6141   */\n      swap1\n      pop\n        /* \"#utility.yul\":6150:6182   */\n      tag_151\n        /* \"#utility.yul\":6176:6181   */\n      dup2\n        /* \"#utility.yul\":6150:6182   */\n      tag_86\n      jump\t// in\n    tag_151:\n        /* \"#utility.yul\":6047:6188   */\n      swap3\n      swap2\n      pop\n      pop\n      jump\t// out\n        /* \"#utility.yul\":6194:6316   */\n    tag_88:\n        /* \"#utility.yul\":6267:6291   */\n      tag_153\n        /* \"#utility.yul\":6285:6290   */\n      dup2\n        /* \"#utility.yul\":6267:6291   */\n      tag_72\n      jump\t// in\n    tag_153:\n        /* \"#utility.yul\":6260:6265   */\n      dup2\n        /* \"#utility.yul\":6257:6292   */\n      eq\n        /* \"#utility.yul\":6247:6310   */\n      tag_154\n      jumpi\n        /* \"#utility.yul\":6306:6307   */\n      0x00\n        /* \"#utility.yul\":6303:6304   */\n      0x00\n        /* \"#utility.yul\":6296:6308   */\n      revert\n        /* \"#utility.yul\":6247:6310   */\n    tag_154:\n        /* \"#utility.yul\":6194:6316   */\n      pop\n      jump\t// out\n        /* \"#utility.yul\":6322:6465   */\n    tag_89:\n        /* \"#utility.yul\":6379:6384   */\n      0x00\n        /* \"#utility.yul\":6410:6416   */\n      dup2\n        /* \"#utility.yul\":6404:6417   */\n      mload\n        /* \"#utility.yul\":6395:6417   */\n      swap1\n      pop\n        /* \"#utility.yul\":6426:6459   */\n      tag_156\n        /* \"#utility.yul\":6453:6458   */\n      dup2\n        /* \"#utility.yul\":6426:6459   */\n      tag_88\n      jump\t// in\n    tag_156:\n        /* \"#utility.yul\":6322:6465   */\n      swap3\n      swap2\n      pop\n      pop\n      jump\t// out\n        /* \"#utility.yul\":6471:7442   */\n    tag_54:\n        /* \"#utility.yul\":6574:6580   */\n      0x00\n        /* \"#utility.yul\":6582:6588   */\n      0x00\n        /* \"#utility.yul\":6590:6596   */\n      0x00\n        /* \"#utility.yul\":6598:6604   */\n      0x00\n        /* \"#utility.yul\":6606:6612   */\n      0x00\n        /* \"#utility.yul\":6655:6658   */\n      0xa0\n        /* \"#utility.yul\":6643:6652   */\n      dup7\n        /* \"#utility.yul\":6634:6641   */\n      dup9\n        /* \"#utility.yul\":6630:6653   */\n      sub\n        /* \"#utility.yul\":6626:6659   */\n      slt\n        /* \"#utility.yul\":6623:6743   */\n      iszero\n      tag_158\n      jumpi\n        /* \"#utility.yul\":6662:6741   */\n      tag_159\n      tag_68\n      jump\t// in\n    tag_159:\n        /* \"#utility.yul\":6623:6743   */\n    tag_158:\n        /* \"#utility.yul\":6782:6783   */\n      0x00\n        /* \"#utility.yul\":6807:6870   */\n      tag_160\n        /* \"#utility.yul\":6862:6869   */\n      dup9\n        /* \"#utility.yul\":6853:6859   */\n      dup3\n        /* \"#utility.yul\":6842:6851   */\n      dup10\n        /* \"#utility.yul\":6838:6860   */\n      add\n        /* \"#utility.yul\":6807:6870   */\n      tag_85\n      jump\t// in\n    tag_160:\n        /* \"#utility.yul\":6797:6870   */\n      swap6\n      pop\n        /* \"#utility.yul\":6753:6880   */\n      pop\n        /* \"#utility.yul\":6919:6921   */\n      0x20\n        /* \"#utility.yul\":6945:7008   */\n      tag_161\n        /* \"#utility.yul\":7000:7007   */\n      dup9\n        /* \"#utility.yul\":6991:6997   */\n      dup3\n        /* \"#utility.yul\":6980:6989   */\n      dup10\n        /* \"#utility.yul\":6976:6998   */\n      add\n        /* \"#utility.yul\":6945:7008   */\n      tag_87\n      jump\t// in\n    tag_161:\n        /* \"#utility.yul\":6935:7008   */\n      swap5\n      pop\n        /* \"#utility.yul\":6890:7018   */\n      pop\n        /* \"#utility.yul\":7057:7059   */\n      0x40\n        /* \"#utility.yul\":7083:7147   */\n      tag_162\n        /* \"#utility.yul\":7139:7146   */\n      dup9\n        /* \"#utility.yul\":7130:7136   */\n      dup3\n        /* \"#utility.yul\":7119:7128   */\n      dup10\n        /* \"#utility.yul\":7115:7137   */\n      add\n        /* \"#utility.yul\":7083:7147   */\n      tag_89\n      jump\t// in\n    tag_162:\n        /* \"#utility.yul\":7073:7147   */\n      swap4\n      pop\n        /* \"#utility.yul\":7028:7157   */\n      pop\n        /* \"#utility.yul\":7196:7198   */\n      0x60\n        /* \"#utility.yul\":7222:7286   */\n      tag_163\n        /* \"#utility.yul\":7278:7285   */\n      dup9\n        /* \"#utility.yul\":7269:7275   */\n      dup3\n        /* \"#utility.yul\":7258:7267   */\n      dup10\n        /* \"#utility.yul\":7254:7276   */\n      add\n        /* \"#utility.yul\":7222:7286   */\n      tag_89\n      jump\t// in\n    tag_163:\n        /* \"#utility.yul\":7212:7286   */\n      swap3\n      pop\n        /* \"#utility.yul\":7167:7296   */\n      pop\n        /* \"#utility.yul\":7335:7338   */\n      0x80\n        /* \"#utility.yul\":7362:7425   */\n      tag_164\n        /* \"#utility.yul\":7417:7424   */\n      dup9\n        /* \"#utility.yul\":7408:7414   */\n      dup3\n        /* \"#utility.yul\":7397:7406   */\n      dup10\n        /* \"#utility.yul\":7393:7415   */\n      add\n        /* \"#utility.yul\":7362:7425   */\n      tag_85\n      jump\t// in\n    tag_164:\n        /* \"#utility.yul\":7352:7425   */\n      swap2\n      pop\n        /* \"#utility.yul\":7306:7435   */\n      pop\n        /* \"#utility.yul\":6471:7442   */\n      swap3\n      swap6\n      pop\n      swap3\n      swap6\n      swap1\n      swap4\n      pop\n      jump\t// out\n        /* \"#utility.yul\":7448:7628   */\n    tag_90:\n        /* \"#utility.yul\":7496:7573   */\n      0x4e487b7100000000000000000000000000000000000000000000000000000000\n        /* \"#utility.yul\":7493:7494   */\n      0x00\n        /* \"#utility.yul\":7486:7574   */\n      mstore\n        /* \"#utility.yul\":7593:7597   */\n      0x11\n        /* \"#utility.yul\":7590:7591   */\n      0x04\n        /* \"#utility.yul\":7583:7598   */\n      mstore\n        /* \"#utility.yul\":7617:7621   */\n      0x24\n        /* \"#utility.yul\":7614:7615   */\n      0x00\n        /* \"#utility.yul\":7607:7622   */\n      revert\n        /* \"#utility.yul\":7634:8044   */\n    tag_61:\n        /* \"#utility.yul\":7674:7681   */\n      0x00\n        /* \"#utility.yul\":7697:7717   */\n      tag_167\n        /* \"#utility.yul\":7715:7716   */\n      dup3\n        /* \"#utility.yul\":7697:7717   */\n      tag_72\n      jump\t// in\n    tag_167:\n        /* \"#utility.yul\":7692:7717   */\n      swap2\n      pop\n        /* \"#utility.yul\":7731:7751   */\n      tag_168\n        /* \"#utility.yul\":7749:7750   */\n      dup4\n        /* \"#utility.yul\":7731:7751   */\n      tag_72\n      jump\t// in\n    tag_168:\n        /* \"#utility.yul\":7726:7751   */\n      swap3\n      pop\n        /* \"#utility.yul\":7786:7787   */\n      dup3\n        /* \"#utility.yul\":7783:7784   */\n      dup3\n        /* \"#utility.yul\":7779:7788   */\n      mul\n        /* \"#utility.yul\":7808:7838   */\n      tag_169\n        /* \"#utility.yul\":7826:7837   */\n      dup2\n        /* \"#utility.yul\":7808:7838   */\n      tag_72\n      jump\t// in\n    tag_169:\n        /* \"#utility.yul\":7797:7838   */\n      swap2\n      pop\n        /* \"#utility.yul\":7987:7988   */\n      dup3\n        /* \"#utility.yul\":7978:7985   */\n      dup3\n        /* \"#utility.yul\":7974:7989   */\n      div\n        /* \"#utility.yul\":7971:7972   */\n      dup5\n        /* \"#utility.yul\":7968:7990   */\n      eq\n        /* \"#utility.yul\":7948:7949   */\n      dup4\n        /* \"#utility.yul\":7941:7950   */\n      iszero\n        /* \"#utility.yul\":7921:8004   */\n      or\n        /* \"#utility.yul\":7898:8037   */\n      tag_170\n      jumpi\n        /* \"#utility.yul\":8017:8035   */\n      tag_171\n      tag_90\n      jump\t// in\n    tag_171:\n        /* \"#utility.yul\":7898:8037   */\n    tag_170:\n        /* \"#utility.yul\":7682:8044   */\n      pop\n        /* \"#utility.yul\":7634:8044   */\n      swap3\n      swap2\n      pop\n      pop\n      jump\t// out\n        /* \"#utility.yul\":8050:8230   */\n    tag_91:\n        /* \"#utility.yul\":8098:8175   */\n      0x4e487b7100000000000000000000000000000000000000000000000000000000\n        /* \"#utility.yul\":8095:8096   */\n      0x00\n        /* \"#utility.yul\":8088:8176   */\n      mstore\n        /* \"#utility.yul\":8195:8199   */\n      0x12\n        /* \"#utility.yul\":8192:8193   */\n      0x04\n        /* \"#utility.yul\":8185:8200   */\n      mstore\n        /* \"#utility.yul\":8219:8223   */\n      0x24\n        /* \"#utility.yul\":8216:8217   */\n      0x00\n        /* \"#utility.yul\":8209:8224   */\n      revert\n        /* \"#utility.yul\":8236:8421   */\n    tag_63:\n        /* \"#utility.yul\":8276:8277   */\n      0x00\n        /* \"#utility.yul\":8293:8313   */\n      tag_174\n        /* \"#utility.yul\":8311:8312   */\n      dup3\n        /* \"#utility.yul\":8293:8313   */\n      tag_72\n      jump\t// in\n    tag_174:\n        /* \"#utility.yul\":8288:8313   */\n      swap2\n      pop\n        /* \"#utility.yul\":8327:8347   */\n      tag_175\n        /* \"#utility.yul\":8345:8346   */\n      dup4\n        /* \"#utility.yul\":8327:8347   */\n      tag_72\n      jump\t// in\n    tag_175:\n        /* \"#utility.yul\":8322:8347   */\n      swap3\n      pop\n        /* \"#utility.yul\":8366:8367   */\n      dup3\n        /* \"#utility.yul\":8356:8391   */\n      tag_176\n      jumpi\n        /* \"#utility.yul\":8371:8389   */\n      tag_177\n      tag_91\n      jump\t// in\n    tag_177:\n        /* \"#utility.yul\":8356:8391   */\n    tag_176:\n        /* \"#utility.yul\":8413:8414   */\n      dup3\n        /* \"#utility.yul\":8410:8411   */\n      dup3\n        /* \"#utility.yul\":8406:8415   */\n      div\n        /* \"#utility.yul\":8401:8415   */\n      swap1\n      pop\n        /* \"#utility.yul\":8236:8421   */\n      swap3\n      swap2\n      pop\n      pop\n      jump\t// out\n\n    auxdata: 0xa2646970667358221220f175051a9701e61ed8d64f5b791944ff24e9d07f53280d248aa424c920bebf1364736f6c634300081e0033\n}\n",
				"bytecode": {
					"linkReferences": {},
					"object": "6080604052348015600e575f5ffd5b5073694aa1769357215de4fac081bf1f309adc3253065f5f6101000a81548173ffffffffffffffffffffffffffffffffffffffff021916908373ffffffffffffffffffffffffffffffffffffffff1602179055503360025f6101000a81548173ffffffffffffffffffffffffffffffffffffffff021916908373ffffffffffffffffffffffffffffffffffffffff160217905550610954806100af5f395ff3fe608060405260043610610054575f3560e01c80638da5cb5b146100585780638edd6eb6146100825780639f883a0514610098578063b60d4288146100d4578063bea4dfb5146100de578063f2fde38b14610108575b5f5ffd5b348015610063575f5ffd5b5061006c610130565b6040516100799190610507565b60405180910390f35b34801561008d575f5ffd5b50610096610155565b005b3480156100a3575f5ffd5b506100be60048036038101906100b9919061054e565b61027e565b6040516100cb9190610591565b60405180910390f35b6100dc610293565b005b3480156100e9575f5ffd5b506100f261032b565b6040516100ff91906105c2565b60405180910390f35b348015610113575f5ffd5b5061012e6004803603810190610129919061054e565b6103c7565b005b60025f9054906101000a900473ffffffffffffffffffffffffffffffffffffffff1681565b683635c9adc5dea0000061016847610499565b10156101a9576040517f08c379a00000000000000000000000000000000000000000000000000000000081526004016101a090610635565b60405180910390fd5b60025f9054906101000a900473ffffffffffffffffffffffffffffffffffffffff1673ffffffffffffffffffffffffffffffffffffffff163373ffffffffffffffffffffffffffffffffffffffff1614610238576040517f08c379a000000000000000000000000000000000000000000000000000000000815260040161022f906106c3565b60405180910390fd5b3373ffffffffffffffffffffffffffffffffffffffff166108fc4790811502906040515f60405180830381858888f1935050505015801561027b573d5f5f3e3d5ffd5b50565b6001602052805f5260405f205f915090505481565b68056bc75e2d631000006102a634610499565b10156102e7576040517f08c379a00000000000000000000000000000000000000000000000000000000081526004016102de9061072b565b60405180910390fd5b3460015f3373ffffffffffffffffffffffffffffffffffffffff1673ffffffffffffffffffffffffffffffffffffffff1681526020019081526020015f2081905550565b5f5f5f5f9054906101000a900473ffffffffffffffffffffffffffffffffffffffff1673ffffffffffffffffffffffffffffffffffffffff1663feaf968c6040518163ffffffff1660e01b815260040160a060405180830381865afa158015610396573d5f5f3e3d5ffd5b505050506040513d601f19601f820116820180604052508101906103ba91906107dc565b5050509150508091505090565b60025f9054906101000a900473ffffffffffffffffffffffffffffffffffffffff1673ffffffffffffffffffffffffffffffffffffffff163373ffffffffffffffffffffffffffffffffffffffff1614610456576040517f08c379a000000000000000000000000000000000000000000000000000000000815260040161044d906106c3565b60405180910390fd5b8060025f6101000a81548173ffffffffffffffffffffffffffffffffffffffff021916908373ffffffffffffffffffffffffffffffffffffffff16021790555050565b5f5f6104a361032b565b90506305f5e10081846104b69190610880565b6104c091906108ee565b915050919050565b5f73ffffffffffffffffffffffffffffffffffffffff82169050919050565b5f6104f1826104c8565b9050919050565b610501816104e7565b82525050565b5f60208201905061051a5f8301846104f8565b92915050565b5f5ffd5b61052d816104e7565b8114610537575f5ffd5b50565b5f8135905061054881610524565b92915050565b5f6020828403121561056357610562610520565b5b5f6105708482850161053a565b91505092915050565b5f819050919050565b61058b81610579565b82525050565b5f6020820190506105a45f830184610582565b92915050565b5f819050919050565b6105bc816105aa565b82525050565b5f6020820190506105d55f8301846105b3565b92915050565b5f82825260208201905092915050565b7f546172676574206973206e6f74207265616368656400000000000000000000005f82015250565b5f61061f6015836105db565b915061062a826105eb565b602082019050919050565b5f6020820190508181035f83015261064c81610613565b9050919050565b7f546869732066756e6374696f6e2063616e206f6e6c792062652063616c6c65645f8201527f206279206f776e65720000000000000000000000000000000000000000000000602082015250565b5f6106ad6029836105db565b91506106b882610653565b604082019050919050565b5f6020820190508181035f8301526106da816106a1565b9050919050565b7f53656e64204d6f726520455448210000000000000000000000000000000000005f82015250565b5f610715600e836105db565b9150610720826106e1565b602082019050919050565b5f6020820190508181035f83015261074281610709565b9050919050565b5f69ffffffffffffffffffff82169050919050565b61076781610749565b8114610771575f5ffd5b50565b5f815190506107828161075e565b92915050565b610791816105aa565b811461079b575f5ffd5b50565b5f815190506107ac81610788565b92915050565b6107bb81610579565b81146107c5575f5ffd5b50565b5f815190506107d6816107b2565b92915050565b5f5f5f5f5f60a086880312156107f5576107f4610520565b5b5f61080288828901610774565b95505060206108138882890161079e565b9450506040610824888289016107c8565b9350506060610835888289016107c8565b925050608061084688828901610774565b9150509295509295909350565b7f4e487b71000000000000000000000000000000000000000000000000000000005f52601160045260245ffd5b5f61088a82610579565b915061089583610579565b92508282026108a381610579565b915082820484148315176108ba576108b9610853565b5b5092915050565b7f4e487b71000000000000000000000000000000000000000000000000000000005f52601260045260245ffd5b5f6108f882610579565b915061090383610579565b925082610913576109126108c1565b5b82820490509291505056fea2646970667358221220f175051a9701e61ed8d64f5b791944ff24e9d07f53280d248aa424c920bebf1364736f6c634300081e0033",
					"opcodes": "PUSH1 0x80 PUSH1 0x40 MSTORE CALLVALUE DUP1 ISZERO PUSH1 0xE JUMPI PUSH0 PUSH0 REVERT JUMPDEST POP PUSH20 0x694AA1769357215DE4FAC081BF1F309ADC325306 PUSH0 PUSH0 PUSH2 0x100 EXP DUP2 SLOAD DUP2 PUSH20 0xFFFFFFFFFFFFFFFFFFFFFFFFFFFFFFFFFFFFFFFF MUL NOT AND SWAP1 DUP4 PUSH20 0xFFFFFFFFFFFFFFFFFFFFFFFFFFFFFFFFFFFFFFFF AND MUL OR SWAP1 SSTORE POP CALLER PUSH1 0x2 PUSH0 PUSH2 0x100 EXP DUP2 SLOAD DUP2 PUSH20 0xFFFFFFFFFFFFFFFFFFFFFFFFFFFFFFFFFFFFFFFF MUL NOT AND SWAP1 DUP4 PUSH20 0xFFFFFFFFFFFFFFFFFFFFFFFFFFFFFFFFFFFFFFFF AND MUL OR SWAP1 SSTORE POP PUSH2 0x954 DUP1 PUSH2 0xAF PUSH0 CODECOPY PUSH0 RETURN INVALID PUSH1 0x80 PUSH1 0x40 MSTORE PUSH1 0x4 CALLDATASIZE LT PUSH2 0x54 JUMPI PUSH0 CALLDATALOAD PUSH1 0xE0 SHR DUP1 PUSH4 0x8DA5CB5B EQ PUSH2 0x58 JUMPI DUP1 PUSH4 0x8EDD6EB6 EQ PUSH2 0x82 JUMPI DUP1 PUSH4 0x9F883A05 EQ PUSH2 0x98 JUMPI DUP1 PUSH4 0xB60D4288 EQ PUSH2 0xD4 JUMPI DUP1 PUSH4 0xBEA4DFB5 EQ PUSH2 0xDE JUMPI DUP1 PUSH4 0xF2FDE38B EQ PUSH2 0x108 JUMPI JUMPDEST PUSH0 PUSH0 REVERT JUMPDEST CALLVALUE DUP1 ISZERO PUSH2 0x63 JUMPI PUSH0 PUSH0 REVERT JUMPDEST POP PUSH2 0x6C PUSH2 0x130 JUMP JUMPDEST PUSH1 0x40 MLOAD PUSH2 0x79 SWAP2 SWAP1 PUSH2 0x507 JUMP JUMPDEST PUSH1 0x40 MLOAD DUP1 SWAP2 SUB SWAP1 RETURN JUMPDEST CALLVALUE DUP1 ISZERO PUSH2 0x8D JUMPI PUSH0 PUSH0 REVERT JUMPDEST POP PUSH2 0x96 PUSH2 0x155 JUMP JUMPDEST STOP JUMPDEST CALLVALUE DUP1 ISZERO PUSH2 0xA3 JUMPI PUSH0 PUSH0 REVERT JUMPDEST POP PUSH2 0xBE PUSH1 0x4 DUP1 CALLDATASIZE SUB DUP2 ADD SWAP1 PUSH2 0xB9 SWAP2 SWAP1 PUSH2 0x54E JUMP JUMPDEST PUSH2 0x27E JUMP JUMPDEST PUSH1 0x40 MLOAD PUSH2 0xCB SWAP2 SWAP1 PUSH2 0x591 JUMP JUMPDEST PUSH1 0x40 MLOAD DUP1 SWAP2 SUB SWAP1 RETURN JUMPDEST PUSH2 0xDC PUSH2 0x293 JUMP JUMPDEST STOP JUMPDEST CALLVALUE DUP1 ISZERO PUSH2 0xE9 JUMPI PUSH0 PUSH0 REVERT JUMPDEST POP PUSH2 0xF2 PUSH2 0x32B JUMP JUMPDEST PUSH1 0x40 MLOAD PUSH2 0xFF SWAP2 SWAP1 PUSH2 0x5C2 JUMP JUMPDEST PUSH1 0x40 MLOAD DUP1 SWAP2 SUB SWAP1 RETURN JUMPDEST CALLVALUE DUP1 ISZERO PUSH2 0x113 JUMPI PUSH0 PUSH0 REVERT JUMPDEST POP PUSH2 0x12E PUSH1 0x4 DUP1 CALLDATASIZE SUB DUP2 ADD SWAP1 PUSH2 0x129 SWAP2 SWAP1 PUSH2 0x54E JUMP JUMPDEST PUSH2 0x3C7 JUMP JUMPDEST STOP JUMPDEST PUSH1 0x2 PUSH0 SWAP1 SLOAD SWAP1 PUSH2 0x100 EXP SWAP1 DIV PUSH20 0xFFFFFFFFFFFFFFFFFFFFFFFFFFFFFFFFFFFFFFFF AND DUP2 JUMP JUMPDEST PUSH9 0x3635C9ADC5DEA00000 PUSH2 0x168 SELFBALANCE PUSH2 0x499 JUMP JUMPDEST LT ISZERO PUSH2 0x1A9 JUMPI PUSH1 0x40 MLOAD PUSH32 0x8C379A000000000000000000000000000000000000000000000000000000000 DUP2 MSTORE PUSH1 0x4 ADD PUSH2 0x1A0 SWAP1 PUSH2 0x635 JUMP JUMPDEST PUSH1 0x40 MLOAD DUP1 SWAP2 SUB SWAP1 REVERT JUMPDEST PUSH1 0x2 PUSH0 SWAP1 SLOAD SWAP1 PUSH2 0x100 EXP SWAP1 DIV PUSH20 0xFFFFFFFFFFFFFFFFFFFFFFFFFFFFFFFFFFFFFFFF AND PUSH20 0xFFFFFFFFFFFFFFFFFFFFFFFFFFFFFFFFFFFFFFFF AND CALLER PUSH20 0xFFFFFFFFFFFFFFFFFFFFFFFFFFFFFFFFFFFFFFFF AND EQ PUSH2 0x238 JUMPI PUSH1 0x40 MLOAD PUSH32 0x8C379A000000000000000000000000000000000000000000000000000000000 DUP2 MSTORE PUSH1 0x4 ADD PUSH2 0x22F SWAP1 PUSH2 0x6C3 JUMP JUMPDEST PUSH1 0x40 MLOAD DUP1 SWAP2 SUB SWAP1 REVERT JUMPDEST CALLER PUSH20 0xFFFFFFFFFFFFFFFFFFFFFFFFFFFFFFFFFFFFFFFF AND PUSH2 0x8FC SELFBALANCE SWAP1 DUP2 ISZERO MUL SWAP1 PUSH1 0x40 MLOAD PUSH0 PUSH1 0x40 MLOAD DUP1 DUP4 SUB DUP2 DUP6 DUP9 DUP9 CALL SWAP4 POP POP POP POP ISZERO DUP1 ISZERO PUSH2 0x27B JUMPI RETURNDATASIZE PUSH0 PUSH0 RETURNDATACOPY RETURNDATASIZE PUSH0 REVERT JUMPDEST POP JUMP JUMPDEST PUSH1 0x1 PUSH1 0x20 MSTORE DUP1 PUSH0 MSTORE PUSH1 0x40 PUSH0 KECCAK256 PUSH0 SWAP2 POP SWAP1 POP SLOAD DUP2 JUMP JUMPDEST PUSH9 0x56BC75E2D63100000 PUSH2 0x2A6 CALLVALUE PUSH2 0x499 JUMP JUMPDEST LT ISZERO PUSH2 0x2E7 JUMPI PUSH1 0x40 MLOAD PUSH32 0x8C379A000000000000000000000000000000000000000000000000000000000 DUP2 MSTORE PUSH1 0x4 ADD PUSH2 0x2DE SWAP1 PUSH2 0x72B JUMP JUMPDEST PUSH1 0x40 MLOAD DUP1 SWAP2 SUB SWAP1 REVERT JUMPDEST CALLVALUE PUSH1 0x1 PUSH0 CALLER PUSH20 0xFFFFFFFFFFFFFFFFFFFFFFFFFFFFFFFFFFFFFFFF AND PUSH20 0xFFFFFFFFFFFFFFFFFFFFFFFFFFFFFFFFFFFFFFFF AND DUP2 MSTORE PUSH1 0x20 ADD SWAP1 DUP2 MSTORE PUSH1 0x20 ADD PUSH0 KECCAK256 DUP2 SWAP1 SSTORE POP JUMP JUMPDEST PUSH0 PUSH0 PUSH0 PUSH0 SWAP1 SLOAD SWAP1 PUSH2 0x100 EXP SWAP1 DIV PUSH20 0xFFFFFFFFFFFFFFFFFFFFFFFFFFFFFFFFFFFFFFFF AND PUSH20 0xFFFFFFFFFFFFFFFFFFFFFFFFFFFFFFFFFFFFFFFF AND PUSH4 0xFEAF968C PUSH1 0x40 MLOAD DUP2 PUSH4 0xFFFFFFFF AND PUSH1 0xE0 SHL DUP2 MSTORE PUSH1 0x4 ADD PUSH1 0xA0 PUSH1 0x40 MLOAD DUP1 DUP4 SUB DUP2 DUP7 GAS STATICCALL ISZERO DUP1 ISZERO PUSH2 0x396 JUMPI RETURNDATASIZE PUSH0 PUSH0 RETURNDATACOPY RETURNDATASIZE PUSH0 REVERT JUMPDEST POP POP POP POP PUSH1 0x40 MLOAD RETURNDATASIZE PUSH1 0x1F NOT PUSH1 0x1F DUP3 ADD AND DUP3 ADD DUP1 PUSH1 0x40 MSTORE POP DUP2 ADD SWAP1 PUSH2 0x3BA SWAP2 SWAP1 PUSH2 0x7DC JUMP JUMPDEST POP POP POP SWAP2 POP POP DUP1 SWAP2 POP POP SWAP1 JUMP JUMPDEST PUSH1 0x2 PUSH0 SWAP1 SLOAD SWAP1 PUSH2 0x100 EXP SWAP1 DIV PUSH20 0xFFFFFFFFFFFFFFFFFFFFFFFFFFFFFFFFFFFFFFFF AND PUSH20 0xFFFFFFFFFFFFFFFFFFFFFFFFFFFFFFFFFFFFFFFF AND CALLER PUSH20 0xFFFFFFFFFFFFFFFFFFFFFFFFFFFFFFFFFFFFFFFF AND EQ PUSH2 0x456 JUMPI PUSH1 0x40 MLOAD PUSH32 0x8C379A000000000000000000000000000000000000000000000000000000000 DUP2 MSTORE PUSH1 0x4 ADD PUSH2 0x44D SWAP1 PUSH2 0x6C3 JUMP JUMPDEST PUSH1 0x40 MLOAD DUP1 SWAP2 SUB SWAP1 REVERT JUMPDEST DUP1 PUSH1 0x2 PUSH0 PUSH2 0x100 EXP DUP2 SLOAD DUP2 PUSH20 0xFFFFFFFFFFFFFFFFFFFFFFFFFFFFFFFFFFFFFFFF MUL NOT AND SWAP1 DUP4 PUSH20 0xFFFFFFFFFFFFFFFFFFFFFFFFFFFFFFFFFFFFFFFF AND MUL OR SWAP1 SSTORE POP POP JUMP JUMPDEST PUSH0 PUSH0 PUSH2 0x4A3 PUSH2 0x32B JUMP JUMPDEST SWAP1 POP PUSH4 0x5F5E100 DUP2 DUP5 PUSH2 0x4B6 SWAP2 SWAP1 PUSH2 0x880 JUMP JUMPDEST PUSH2 0x4C0 SWAP2 SWAP1 PUSH2 0x8EE JUMP JUMPDEST SWAP2 POP POP SWAP2 SWAP1 POP JUMP JUMPDEST PUSH0 PUSH20 0xFFFFFFFFFFFFFFFFFFFFFFFFFFFFFFFFFFFFFFFF DUP3 AND SWAP1 POP SWAP2 SWAP1 POP JUMP JUMPDEST PUSH0 PUSH2 0x4F1 DUP3 PUSH2 0x4C8 JUMP JUMPDEST SWAP1 POP SWAP2 SWAP1 POP JUMP JUMPDEST PUSH2 0x501 DUP2 PUSH2 0x4E7 JUMP JUMPDEST DUP3 MSTORE POP POP JUMP JUMPDEST PUSH0 PUSH1 0x20 DUP3 ADD SWAP1 POP PUSH2 0x51A PUSH0 DUP4 ADD DUP5 PUSH2 0x4F8 JUMP JUMPDEST SWAP3 SWAP2 POP POP JUMP JUMPDEST PUSH0 PUSH0 REVERT JUMPDEST PUSH2 0x52D DUP2 PUSH2 0x4E7 JUMP JUMPDEST DUP2 EQ PUSH2 0x537 JUMPI PUSH0 PUSH0 REVERT JUMPDEST POP JUMP JUMPDEST PUSH0 DUP2 CALLDATALOAD SWAP1 POP PUSH2 0x548 DUP2 PUSH2 0x524 JUMP JUMPDEST SWAP3 SWAP2 POP POP JUMP JUMPDEST PUSH0 PUSH1 0x20 DUP3 DUP5 SUB SLT ISZERO PUSH2 0x563 JUMPI PUSH2 0x562 PUSH2 0x520 JUMP JUMPDEST JUMPDEST PUSH0 PUSH2 0x570 DUP5 DUP3 DUP6 ADD PUSH2 0x53A JUMP JUMPDEST SWAP2 POP POP SWAP3 SWAP2 POP POP JUMP JUMPDEST PUSH0 DUP2 SWAP1 POP SWAP2 SWAP1 POP JUMP JUMPDEST PUSH2 0x58B DUP2 PUSH2 0x579 JUMP JUMPDEST DUP3 MSTORE POP POP JUMP JUMPDEST PUSH0 PUSH1 0x20 DUP3 ADD SWAP1 POP PUSH2 0x5A4 PUSH0 DUP4 ADD DUP5 PUSH2 0x582 JUMP JUMPDEST SWAP3 SWAP2 POP POP JUMP JUMPDEST PUSH0 DUP2 SWAP1 POP SWAP2 SWAP1 POP JUMP JUMPDEST PUSH2 0x5BC DUP2 PUSH2 0x5AA JUMP JUMPDEST DUP3 MSTORE POP POP JUMP JUMPDEST PUSH0 PUSH1 0x20 DUP3 ADD SWAP1 POP PUSH2 0x5D5 PUSH0 DUP4 ADD DUP5 PUSH2 0x5B3 JUMP JUMPDEST SWAP3 SWAP2 POP POP JUMP JUMPDEST PUSH0 DUP3 DUP3 MSTORE PUSH1 0x20 DUP3 ADD SWAP1 POP SWAP3 SWAP2 POP POP JUMP JUMPDEST PUSH32 0x546172676574206973206E6F7420726561636865640000000000000000000000 PUSH0 DUP3 ADD MSTORE POP JUMP JUMPDEST PUSH0 PUSH2 0x61F PUSH1 0x15 DUP4 PUSH2 0x5DB JUMP JUMPDEST SWAP2 POP PUSH2 0x62A DUP3 PUSH2 0x5EB JUMP JUMPDEST PUSH1 0x20 DUP3 ADD SWAP1 POP SWAP2 SWAP1 POP JUMP JUMPDEST PUSH0 PUSH1 0x20 DUP3 ADD SWAP1 POP DUP2 DUP2 SUB PUSH0 DUP4 ADD MSTORE PUSH2 0x64C DUP2 PUSH2 0x613 JUMP JUMPDEST SWAP1 POP SWAP2 SWAP1 POP JUMP JUMPDEST PUSH32 0x546869732066756E6374696F6E2063616E206F6E6C792062652063616C6C6564 PUSH0 DUP3 ADD MSTORE PUSH32 0x206279206F776E65720000000000000000000000000000000000000000000000 PUSH1 0x20 DUP3 ADD MSTORE POP JUMP JUMPDEST PUSH0 PUSH2 0x6AD PUSH1 0x29 DUP4 PUSH2 0x5DB JUMP JUMPDEST SWAP2 POP PUSH2 0x6B8 DUP3 PUSH2 0x653 JUMP JUMPDEST PUSH1 0x40 DUP3 ADD SWAP1 POP SWAP2 SWAP1 POP JUMP JUMPDEST PUSH0 PUSH1 0x20 DUP3 ADD SWAP1 POP DUP2 DUP2 SUB PUSH0 DUP4 ADD MSTORE PUSH2 0x6DA DUP2 PUSH2 0x6A1 JUMP JUMPDEST SWAP1 POP SWAP2 SWAP1 POP JUMP JUMPDEST PUSH32 0x53656E64204D6F72652045544821000000000000000000000000000000000000 PUSH0 DUP3 ADD MSTORE POP JUMP JUMPDEST PUSH0 PUSH2 0x715 PUSH1 0xE DUP4 PUSH2 0x5DB JUMP JUMPDEST SWAP2 POP PUSH2 0x720 DUP3 PUSH2 0x6E1 JUMP JUMPDEST PUSH1 0x20 DUP3 ADD SWAP1 POP SWAP2 SWAP1 POP JUMP JUMPDEST PUSH0 PUSH1 0x20 DUP3 ADD SWAP1 POP DUP2 DUP2 SUB PUSH0 DUP4 ADD MSTORE PUSH2 0x742 DUP2 PUSH2 0x709 JUMP JUMPDEST SWAP1 POP SWAP2 SWAP1 POP JUMP JUMPDEST PUSH0 PUSH10 0xFFFFFFFFFFFFFFFFFFFF DUP3 AND SWAP1 POP SWAP2 SWAP1 POP JUMP JUMPDEST PUSH2 0x767 DUP2 PUSH2 0x749 JUMP JUMPDEST DUP2 EQ PUSH2 0x771 JUMPI PUSH0 PUSH0 REVERT JUMPDEST POP JUMP JUMPDEST PUSH0 DUP2 MLOAD SWAP1 POP PUSH2 0x782 DUP2 PUSH2 0x75E JUMP JUMPDEST SWAP3 SWAP2 POP POP JUMP JUMPDEST PUSH2 0x791 DUP2 PUSH2 0x5AA JUMP JUMPDEST DUP2 EQ PUSH2 0x79B JUMPI PUSH0 PUSH0 REVERT JUMPDEST POP JUMP JUMPDEST PUSH0 DUP2 MLOAD SWAP1 POP PUSH2 0x7AC DUP2 PUSH2 0x788 JUMP JUMPDEST SWAP3 SWAP2 POP POP JUMP JUMPDEST PUSH2 0x7BB DUP2 PUSH2 0x579 JUMP JUMPDEST DUP2 EQ PUSH2 0x7C5 JUMPI PUSH0 PUSH0 REVERT JUMPDEST POP JUMP JUMPDEST PUSH0 DUP2 MLOAD SWAP1 POP PUSH2 0x7D6 DUP2 PUSH2 0x7B2 JUMP JUMPDEST SWAP3 SWAP2 POP POP JUMP JUMPDEST PUSH0 PUSH0 PUSH0 PUSH0 PUSH0 PUSH1 0xA0 DUP7 DUP9 SUB SLT ISZERO PUSH2 0x7F5 JUMPI PUSH2 0x7F4 PUSH2 0x520 JUMP JUMPDEST JUMPDEST PUSH0 PUSH2 0x802 DUP9 DUP3 DUP10 ADD PUSH2 0x774 JUMP JUMPDEST SWAP6 POP POP PUSH1 0x20 PUSH2 0x813 DUP9 DUP3 DUP10 ADD PUSH2 0x79E JUMP JUMPDEST SWAP5 POP POP PUSH1 0x40 PUSH2 0x824 DUP9 DUP3 DUP10 ADD PUSH2 0x7C8 JUMP JUMPDEST SWAP4 POP POP PUSH1 0x60 PUSH2 0x835 DUP9 DUP3 DUP10 ADD PUSH2 0x7C8 JUMP JUMPDEST SWAP3 POP POP PUSH1 0x80 PUSH2 0x846 DUP9 DUP3 DUP10 ADD PUSH2 0x774 JUMP JUMPDEST SWAP2 POP POP SWAP3 SWAP6 POP SWAP3 SWAP6 SWAP1 SWAP4 POP JUMP JUMPDEST PUSH32 0x4E487B7100000000000000000000000000000000000000000000000000000000 PUSH0 MSTORE PUSH1 0x11 PUSH1 0x4 MSTORE PUSH1 0x24 PUSH0 REVERT JUMPDEST PUSH0 PUSH2 0x88A DUP3 PUSH2 0x579 JUMP JUMPDEST SWAP2 POP PUSH2 0x895 DUP4 PUSH2 0x579 JUMP JUMPDEST SWAP3 POP DUP3 DUP3 MUL PUSH2 0x8A3 DUP2 PUSH2 0x579 JUMP JUMPDEST SWAP2 POP DUP3 DUP3 DIV DUP5 EQ DUP4 ISZERO OR PUSH2 0x8BA JUMPI PUSH2 0x8B9 PUSH2 0x853 JUMP JUMPDEST JUMPDEST POP SWAP3 SWAP2 POP POP JUMP JUMPDEST PUSH32 0x4E487B7100000000000000000000000000000000000000000000000000000000 PUSH0 MSTORE PUSH1 0x12 PUSH1 0x4 MSTORE PUSH1 0x24 PUSH0 REVERT JUMPDEST PUSH0 PUSH2 0x8F8 DUP3 PUSH2 0x579 JUMP JUMPDEST SWAP2 POP PUSH2 0x903 DUP4 PUSH2 0x579 JUMP JUMPDEST SWAP3 POP DUP3 PUSH2 0x913 JUMPI PUSH2 0x912 PUSH2 0x8C1 JUMP JUMPDEST JUMPDEST DUP3 DUP3 DIV SWAP1 POP SWAP3 SWAP2 POP POP JUMP INVALID LOG2 PUSH5 0x6970667358 0x22 SLT KECCAK256 CALL PUSH22 0x51A9701E61ED8D64F5B791944FF24E9D07F53280D24 DUP11 LOG4 0x24 0xC9 KECCAK256 0xBE 0xBF SGT PUSH5 0x736F6C6343 STOP ADDMOD 0x1E STOP CALLER "
				},
				"gasEstimates": {
					"creation": {
						"codeDepositCost": "477600",
						"executionCost": "49039",
						"totalCost": "526639"
					},
					"external": {
						"fund()": "infinite",
						"fundersToAmount(address)": "2824",
						"getChainlinkDataFeedLatestAnswer()": "infinite",
						"getFund()": "infinite",
						"owner()": "2486",
						"transferOwnership(address)": "26972"
					},
					"internal": {
						"convertEthToUsd(uint256)": "infinite"
					}
				},
				"methodIdentifiers": {
					"fund()": "b60d4288",
					"fundersToAmount(address)": "9f883a05",
					"getChainlinkDataFeedLatestAnswer()": "bea4dfb5",
					"getFund()": "8edd6eb6",
					"owner()": "8da5cb5b",
					"transferOwnership(address)": "f2fde38b"
				}
			},
			"storageLayout": {
				"storage": [
					{
						"astId": 52,
						"contract": "FundMe.sol:FundMe",
						"label": "dataFeed",
						"offset": 0,
						"slot": "0",
						"type": "t_contract(AggregatorV3Interface)45"
					},
					{
						"astId": 56,
						"contract": "FundMe.sol:FundMe",
						"label": "fundersToAmount",
						"offset": 0,
						"slot": "1",
						"type": "t_mapping(t_address,t_uint256)"
					},
					{
						"astId": 72,
						"contract": "FundMe.sol:FundMe",
						"label": "owner",
						"offset": 0,
						"slot": "2",
						"type": "t_address"
					}
				],
				"types": {
					"t_address": {
						"encoding": "inplace",
						"label": "address",
						"numberOfBytes": "20"
					},
					"t_contract(AggregatorV3Interface)45": {
						"encoding": "inplace",
						"label": "contract AggregatorV3Interface",
						"numberOfBytes": "20"
					},
					"t_mapping(t_address,t_uint256)": {
						"encoding": "mapping",
						"key": "t_address",
						"label": "mapping(address => uint256)",
						"numberOfBytes": "32",
						"value": "t_uint256"
					},
					"t_uint256": {
						"encoding": "inplace",
						"label": "uint256",
						"numberOfBytes": "32"
					}
				}
			},
			"userdoc": {
				"kind": "user",
				"methods": {},
				"version": 1
			}
		}
	}
}